{
	"data": {
		"bytecode": {
			"linkReferences": {},
			"object": "60806040526040518060400160405280601181526020017f6b6565704d6f76696e67466f72776172640000000000000000000000000000008152506000908051906020019061004f929190610076565b50600060015560006002556000600355603260045534801561007057600080fd5b5061017a565b82805461008290610148565b90600052602060002090601f0160209004810192826100a457600085556100eb565b82601f106100bd57805160ff19168380011785556100eb565b828001600101855582156100eb579182015b828111156100ea5782518255916020019190600101906100cf565b5b5090506100f891906100fc565b5090565b5b808211156101155760008160009055506001016100fd565b5090565b7f4e487b7100000000000000000000000000000000000000000000000000000000600052602260045260246000fd5b6000600282049050600182168061016057607f821691505b6020821081141561017457610173610119565b5b50919050565b61076c806101896000396000f3fe608060405234801561001057600080fd5b50600436106100a95760003560e01c8063860015191161007157806386001519146101425780638b290a7214610160578063a0a0015c1461017e578063d2b5189a1461019c578063e7fb74c7146101b8578063edf8f408146101d4576100a9565b80630d294629146100ae578063223ed1dd146100cc5780632264c2ac146100e8578063438e65cf14610106578063521936e614610124575b600080fd5b6100b66101f2565b6040516100c391906103bd565b60405180910390f35b6100e660048036038101906100e19190610409565b61025a565b005b6100f0610276565b6040516100fd91906103bd565b60405180910390f35b61010e6102a6565b60405161011b91906103bd565b60405180910390f35b61012c6102b0565b60405161013991906104cf565b60405180910390f35b61014a61033e565b60405161015791906103bd565b60405180910390f35b610168610344565b60405161017591906103bd565b60405180910390f35b61018661034a565b60405161019391906103bd565b60405180910390f35b6101b660048036038101906101b191906104f1565b610350565b005b6101d260048036038101906101cd9190610409565b61037e565b005b6101dc61039a565b6040516101e991906103bd565b60405180910390f35b60006004546002546001546102079190610560565b61021191906105c3565b600381905550600060045460025460015461022c9190610560565b61023691906105f4565b9050806002600082825461024a9190610625565b9250508190555060035491505090565b806001600082825461026c9190610560565b9250508190555050565b6000806064600a60015461028a919061067b565b61029491906105c3565b90508060028190555060025491505090565b6000600154905090565b600080546102bd90610704565b80601f01602080910402602001604051908101604052809291908181526020018280546102e990610704565b80156103365780601f1061030b57610100808354040283529160200191610336565b820191906000526020600020905b81548152906001019060200180831161031957829003601f168201915b505050505081565b60015481565b60035481565b60025481565b6000818361035e919061067b565b905080600160008282546103729190610625565b92505081905550505050565b80600160008282546103909190610625565b9250508190555050565b6000600254905090565b6000819050919050565b6103b7816103a4565b82525050565b60006020820190506103d260008301846103ae565b92915050565b600080fd5b6103e6816103a4565b81146103f157600080fd5b50565b600081359050610403816103dd565b92915050565b60006020828403121561041f5761041e6103d8565b5b600061042d848285016103f4565b91505092915050565b600081519050919050565b600082825260208201905092915050565b60005b83811015610470578082015181840152602081019050610455565b8381111561047f576000848401525b50505050565b6000601f19601f8301169050919050565b60006104a182610436565b6104ab8185610441565b93506104bb818560208601610452565b6104c481610485565b840191505092915050565b600060208201905081810360008301526104e98184610496565b905092915050565b60008060408385031215610508576105076103d8565b5b6000610516858286016103f4565b9250506020610527858286016103f4565b9150509250929050565b7f4e487b7100000000000000000000000000000000000000000000000000000000600052601160045260246000fd5b600061056b826103a4565b9150610576836103a4565b92508282101561058957610588610531565b5b828203905092915050565b7f4e487b7100000000000000000000000000000000000000000000000000000000600052601260045260246000fd5b60006105ce826103a4565b91506105d9836103a4565b9250826105e9576105e8610594565b5b828204905092915050565b60006105ff826103a4565b915061060a836103a4565b92508261061a57610619610594565b5b828206905092915050565b6000610630826103a4565b915061063b836103a4565b9250827fffffffffffffffffffffffffffffffffffffffffffffffffffffffffffffffff038211156106705761066f610531565b5b828201905092915050565b6000610686826103a4565b9150610691836103a4565b9250817fffffffffffffffffffffffffffffffffffffffffffffffffffffffffffffffff04831182151516156106ca576106c9610531565b5b828202905092915050565b7f4e487b7100000000000000000000000000000000000000000000000000000000600052602260045260246000fd5b6000600282049050600182168061071c57607f821691505b602082108114156107305761072f6106d5565b5b5091905056fea2646970667358221220005239b4c1362050bced4593dc89494715b56697fee1b23922ff777f4ac02eac64736f6c634300080a0033",
			"opcodes": "PUSH1 0x80 PUSH1 0x40 MSTORE PUSH1 0x40 MLOAD DUP1 PUSH1 0x40 ADD PUSH1 0x40 MSTORE DUP1 PUSH1 0x11 DUP2 MSTORE PUSH1 0x20 ADD PUSH32 0x6B6565704D6F76696E67466F7277617264000000000000000000000000000000 DUP2 MSTORE POP PUSH1 0x0 SWAP1 DUP1 MLOAD SWAP1 PUSH1 0x20 ADD SWAP1 PUSH2 0x4F SWAP3 SWAP2 SWAP1 PUSH2 0x76 JUMP JUMPDEST POP PUSH1 0x0 PUSH1 0x1 SSTORE PUSH1 0x0 PUSH1 0x2 SSTORE PUSH1 0x0 PUSH1 0x3 SSTORE PUSH1 0x32 PUSH1 0x4 SSTORE CALLVALUE DUP1 ISZERO PUSH2 0x70 JUMPI PUSH1 0x0 DUP1 REVERT JUMPDEST POP PUSH2 0x17A JUMP JUMPDEST DUP3 DUP1 SLOAD PUSH2 0x82 SWAP1 PUSH2 0x148 JUMP JUMPDEST SWAP1 PUSH1 0x0 MSTORE PUSH1 0x20 PUSH1 0x0 KECCAK256 SWAP1 PUSH1 0x1F ADD PUSH1 0x20 SWAP1 DIV DUP2 ADD SWAP3 DUP3 PUSH2 0xA4 JUMPI PUSH1 0x0 DUP6 SSTORE PUSH2 0xEB JUMP JUMPDEST DUP3 PUSH1 0x1F LT PUSH2 0xBD JUMPI DUP1 MLOAD PUSH1 0xFF NOT AND DUP4 DUP1 ADD OR DUP6 SSTORE PUSH2 0xEB JUMP JUMPDEST DUP3 DUP1 ADD PUSH1 0x1 ADD DUP6 SSTORE DUP3 ISZERO PUSH2 0xEB JUMPI SWAP2 DUP3 ADD JUMPDEST DUP3 DUP2 GT ISZERO PUSH2 0xEA JUMPI DUP3 MLOAD DUP3 SSTORE SWAP2 PUSH1 0x20 ADD SWAP2 SWAP1 PUSH1 0x1 ADD SWAP1 PUSH2 0xCF JUMP JUMPDEST JUMPDEST POP SWAP1 POP PUSH2 0xF8 SWAP2 SWAP1 PUSH2 0xFC JUMP JUMPDEST POP SWAP1 JUMP JUMPDEST JUMPDEST DUP1 DUP3 GT ISZERO PUSH2 0x115 JUMPI PUSH1 0x0 DUP2 PUSH1 0x0 SWAP1 SSTORE POP PUSH1 0x1 ADD PUSH2 0xFD JUMP JUMPDEST POP SWAP1 JUMP JUMPDEST PUSH32 0x4E487B7100000000000000000000000000000000000000000000000000000000 PUSH1 0x0 MSTORE PUSH1 0x22 PUSH1 0x4 MSTORE PUSH1 0x24 PUSH1 0x0 REVERT JUMPDEST PUSH1 0x0 PUSH1 0x2 DUP3 DIV SWAP1 POP PUSH1 0x1 DUP3 AND DUP1 PUSH2 0x160 JUMPI PUSH1 0x7F DUP3 AND SWAP2 POP JUMPDEST PUSH1 0x20 DUP3 LT DUP2 EQ ISZERO PUSH2 0x174 JUMPI PUSH2 0x173 PUSH2 0x119 JUMP JUMPDEST JUMPDEST POP SWAP2 SWAP1 POP JUMP JUMPDEST PUSH2 0x76C DUP1 PUSH2 0x189 PUSH1 0x0 CODECOPY PUSH1 0x0 RETURN INVALID PUSH1 0x80 PUSH1 0x40 MSTORE CALLVALUE DUP1 ISZERO PUSH2 0x10 JUMPI PUSH1 0x0 DUP1 REVERT JUMPDEST POP PUSH1 0x4 CALLDATASIZE LT PUSH2 0xA9 JUMPI PUSH1 0x0 CALLDATALOAD PUSH1 0xE0 SHR DUP1 PUSH4 0x86001519 GT PUSH2 0x71 JUMPI DUP1 PUSH4 0x86001519 EQ PUSH2 0x142 JUMPI DUP1 PUSH4 0x8B290A72 EQ PUSH2 0x160 JUMPI DUP1 PUSH4 0xA0A0015C EQ PUSH2 0x17E JUMPI DUP1 PUSH4 0xD2B5189A EQ PUSH2 0x19C JUMPI DUP1 PUSH4 0xE7FB74C7 EQ PUSH2 0x1B8 JUMPI DUP1 PUSH4 0xEDF8F408 EQ PUSH2 0x1D4 JUMPI PUSH2 0xA9 JUMP JUMPDEST DUP1 PUSH4 0xD294629 EQ PUSH2 0xAE JUMPI DUP1 PUSH4 0x223ED1DD EQ PUSH2 0xCC JUMPI DUP1 PUSH4 0x2264C2AC EQ PUSH2 0xE8 JUMPI DUP1 PUSH4 0x438E65CF EQ PUSH2 0x106 JUMPI DUP1 PUSH4 0x521936E6 EQ PUSH2 0x124 JUMPI JUMPDEST PUSH1 0x0 DUP1 REVERT JUMPDEST PUSH2 0xB6 PUSH2 0x1F2 JUMP JUMPDEST PUSH1 0x40 MLOAD PUSH2 0xC3 SWAP2 SWAP1 PUSH2 0x3BD JUMP JUMPDEST PUSH1 0x40 MLOAD DUP1 SWAP2 SUB SWAP1 RETURN JUMPDEST PUSH2 0xE6 PUSH1 0x4 DUP1 CALLDATASIZE SUB DUP2 ADD SWAP1 PUSH2 0xE1 SWAP2 SWAP1 PUSH2 0x409 JUMP JUMPDEST PUSH2 0x25A JUMP JUMPDEST STOP JUMPDEST PUSH2 0xF0 PUSH2 0x276 JUMP JUMPDEST PUSH1 0x40 MLOAD PUSH2 0xFD SWAP2 SWAP1 PUSH2 0x3BD JUMP JUMPDEST PUSH1 0x40 MLOAD DUP1 SWAP2 SUB SWAP1 RETURN JUMPDEST PUSH2 0x10E PUSH2 0x2A6 JUMP JUMPDEST PUSH1 0x40 MLOAD PUSH2 0x11B SWAP2 SWAP1 PUSH2 0x3BD JUMP JUMPDEST PUSH1 0x40 MLOAD DUP1 SWAP2 SUB SWAP1 RETURN JUMPDEST PUSH2 0x12C PUSH2 0x2B0 JUMP JUMPDEST PUSH1 0x40 MLOAD PUSH2 0x139 SWAP2 SWAP1 PUSH2 0x4CF JUMP JUMPDEST PUSH1 0x40 MLOAD DUP1 SWAP2 SUB SWAP1 RETURN JUMPDEST PUSH2 0x14A PUSH2 0x33E JUMP JUMPDEST PUSH1 0x40 MLOAD PUSH2 0x157 SWAP2 SWAP1 PUSH2 0x3BD JUMP JUMPDEST PUSH1 0x40 MLOAD DUP1 SWAP2 SUB SWAP1 RETURN JUMPDEST PUSH2 0x168 PUSH2 0x344 JUMP JUMPDEST PUSH1 0x40 MLOAD PUSH2 0x175 SWAP2 SWAP1 PUSH2 0x3BD JUMP JUMPDEST PUSH1 0x40 MLOAD DUP1 SWAP2 SUB SWAP1 RETURN JUMPDEST PUSH2 0x186 PUSH2 0x34A JUMP JUMPDEST PUSH1 0x40 MLOAD PUSH2 0x193 SWAP2 SWAP1 PUSH2 0x3BD JUMP JUMPDEST PUSH1 0x40 MLOAD DUP1 SWAP2 SUB SWAP1 RETURN JUMPDEST PUSH2 0x1B6 PUSH1 0x4 DUP1 CALLDATASIZE SUB DUP2 ADD SWAP1 PUSH2 0x1B1 SWAP2 SWAP1 PUSH2 0x4F1 JUMP JUMPDEST PUSH2 0x350 JUMP JUMPDEST STOP JUMPDEST PUSH2 0x1D2 PUSH1 0x4 DUP1 CALLDATASIZE SUB DUP2 ADD SWAP1 PUSH2 0x1CD SWAP2 SWAP1 PUSH2 0x409 JUMP JUMPDEST PUSH2 0x37E JUMP JUMPDEST STOP JUMPDEST PUSH2 0x1DC PUSH2 0x39A JUMP JUMPDEST PUSH1 0x40 MLOAD PUSH2 0x1E9 SWAP2 SWAP1 PUSH2 0x3BD JUMP JUMPDEST PUSH1 0x40 MLOAD DUP1 SWAP2 SUB SWAP1 RETURN JUMPDEST PUSH1 0x0 PUSH1 0x4 SLOAD PUSH1 0x2 SLOAD PUSH1 0x1 SLOAD PUSH2 0x207 SWAP2 SWAP1 PUSH2 0x560 JUMP JUMPDEST PUSH2 0x211 SWAP2 SWAP1 PUSH2 0x5C3 JUMP JUMPDEST PUSH1 0x3 DUP2 SWAP1 SSTORE POP PUSH1 0x0 PUSH1 0x4 SLOAD PUSH1 0x2 SLOAD PUSH1 0x1 SLOAD PUSH2 0x22C SWAP2 SWAP1 PUSH2 0x560 JUMP JUMPDEST PUSH2 0x236 SWAP2 SWAP1 PUSH2 0x5F4 JUMP JUMPDEST SWAP1 POP DUP1 PUSH1 0x2 PUSH1 0x0 DUP3 DUP3 SLOAD PUSH2 0x24A SWAP2 SWAP1 PUSH2 0x625 JUMP JUMPDEST SWAP3 POP POP DUP2 SWAP1 SSTORE POP PUSH1 0x3 SLOAD SWAP2 POP POP SWAP1 JUMP JUMPDEST DUP1 PUSH1 0x1 PUSH1 0x0 DUP3 DUP3 SLOAD PUSH2 0x26C SWAP2 SWAP1 PUSH2 0x560 JUMP JUMPDEST SWAP3 POP POP DUP2 SWAP1 SSTORE POP POP JUMP JUMPDEST PUSH1 0x0 DUP1 PUSH1 0x64 PUSH1 0xA PUSH1 0x1 SLOAD PUSH2 0x28A SWAP2 SWAP1 PUSH2 0x67B JUMP JUMPDEST PUSH2 0x294 SWAP2 SWAP1 PUSH2 0x5C3 JUMP JUMPDEST SWAP1 POP DUP1 PUSH1 0x2 DUP2 SWAP1 SSTORE POP PUSH1 0x2 SLOAD SWAP2 POP POP SWAP1 JUMP JUMPDEST PUSH1 0x0 PUSH1 0x1 SLOAD SWAP1 POP SWAP1 JUMP JUMPDEST PUSH1 0x0 DUP1 SLOAD PUSH2 0x2BD SWAP1 PUSH2 0x704 JUMP JUMPDEST DUP1 PUSH1 0x1F ADD PUSH1 0x20 DUP1 SWAP2 DIV MUL PUSH1 0x20 ADD PUSH1 0x40 MLOAD SWAP1 DUP2 ADD PUSH1 0x40 MSTORE DUP1 SWAP3 SWAP2 SWAP1 DUP2 DUP2 MSTORE PUSH1 0x20 ADD DUP3 DUP1 SLOAD PUSH2 0x2E9 SWAP1 PUSH2 0x704 JUMP JUMPDEST DUP1 ISZERO PUSH2 0x336 JUMPI DUP1 PUSH1 0x1F LT PUSH2 0x30B JUMPI PUSH2 0x100 DUP1 DUP4 SLOAD DIV MUL DUP4 MSTORE SWAP2 PUSH1 0x20 ADD SWAP2 PUSH2 0x336 JUMP JUMPDEST DUP3 ADD SWAP2 SWAP1 PUSH1 0x0 MSTORE PUSH1 0x20 PUSH1 0x0 KECCAK256 SWAP1 JUMPDEST DUP2 SLOAD DUP2 MSTORE SWAP1 PUSH1 0x1 ADD SWAP1 PUSH1 0x20 ADD DUP1 DUP4 GT PUSH2 0x319 JUMPI DUP3 SWAP1 SUB PUSH1 0x1F AND DUP3 ADD SWAP2 JUMPDEST POP POP POP POP POP DUP2 JUMP JUMPDEST PUSH1 0x1 SLOAD DUP2 JUMP JUMPDEST PUSH1 0x3 SLOAD DUP2 JUMP JUMPDEST PUSH1 0x2 SLOAD DUP2 JUMP JUMPDEST PUSH1 0x0 DUP2 DUP4 PUSH2 0x35E SWAP2 SWAP1 PUSH2 0x67B JUMP JUMPDEST SWAP1 POP DUP1 PUSH1 0x1 PUSH1 0x0 DUP3 DUP3 SLOAD PUSH2 0x372 SWAP2 SWAP1 PUSH2 0x625 JUMP JUMPDEST SWAP3 POP POP DUP2 SWAP1 SSTORE POP POP POP POP JUMP JUMPDEST DUP1 PUSH1 0x1 PUSH1 0x0 DUP3 DUP3 SLOAD PUSH2 0x390 SWAP2 SWAP1 PUSH2 0x625 JUMP JUMPDEST SWAP3 POP POP DUP2 SWAP1 SSTORE POP POP JUMP JUMPDEST PUSH1 0x0 PUSH1 0x2 SLOAD SWAP1 POP SWAP1 JUMP JUMPDEST PUSH1 0x0 DUP2 SWAP1 POP SWAP2 SWAP1 POP JUMP JUMPDEST PUSH2 0x3B7 DUP2 PUSH2 0x3A4 JUMP JUMPDEST DUP3 MSTORE POP POP JUMP JUMPDEST PUSH1 0x0 PUSH1 0x20 DUP3 ADD SWAP1 POP PUSH2 0x3D2 PUSH1 0x0 DUP4 ADD DUP5 PUSH2 0x3AE JUMP JUMPDEST SWAP3 SWAP2 POP POP JUMP JUMPDEST PUSH1 0x0 DUP1 REVERT JUMPDEST PUSH2 0x3E6 DUP2 PUSH2 0x3A4 JUMP JUMPDEST DUP2 EQ PUSH2 0x3F1 JUMPI PUSH1 0x0 DUP1 REVERT JUMPDEST POP JUMP JUMPDEST PUSH1 0x0 DUP2 CALLDATALOAD SWAP1 POP PUSH2 0x403 DUP2 PUSH2 0x3DD JUMP JUMPDEST SWAP3 SWAP2 POP POP JUMP JUMPDEST PUSH1 0x0 PUSH1 0x20 DUP3 DUP5 SUB SLT ISZERO PUSH2 0x41F JUMPI PUSH2 0x41E PUSH2 0x3D8 JUMP JUMPDEST JUMPDEST PUSH1 0x0 PUSH2 0x42D DUP5 DUP3 DUP6 ADD PUSH2 0x3F4 JUMP JUMPDEST SWAP2 POP POP SWAP3 SWAP2 POP POP JUMP JUMPDEST PUSH1 0x0 DUP2 MLOAD SWAP1 POP SWAP2 SWAP1 POP JUMP JUMPDEST PUSH1 0x0 DUP3 DUP3 MSTORE PUSH1 0x20 DUP3 ADD SWAP1 POP SWAP3 SWAP2 POP POP JUMP JUMPDEST PUSH1 0x0 JUMPDEST DUP4 DUP2 LT ISZERO PUSH2 0x470 JUMPI DUP1 DUP3 ADD MLOAD DUP2 DUP5 ADD MSTORE PUSH1 0x20 DUP2 ADD SWAP1 POP PUSH2 0x455 JUMP JUMPDEST DUP4 DUP2 GT ISZERO PUSH2 0x47F JUMPI PUSH1 0x0 DUP5 DUP5 ADD MSTORE JUMPDEST POP POP POP POP JUMP JUMPDEST PUSH1 0x0 PUSH1 0x1F NOT PUSH1 0x1F DUP4 ADD AND SWAP1 POP SWAP2 SWAP1 POP JUMP JUMPDEST PUSH1 0x0 PUSH2 0x4A1 DUP3 PUSH2 0x436 JUMP JUMPDEST PUSH2 0x4AB DUP2 DUP6 PUSH2 0x441 JUMP JUMPDEST SWAP4 POP PUSH2 0x4BB DUP2 DUP6 PUSH1 0x20 DUP7 ADD PUSH2 0x452 JUMP JUMPDEST PUSH2 0x4C4 DUP2 PUSH2 0x485 JUMP JUMPDEST DUP5 ADD SWAP2 POP POP SWAP3 SWAP2 POP POP JUMP JUMPDEST PUSH1 0x0 PUSH1 0x20 DUP3 ADD SWAP1 POP DUP2 DUP2 SUB PUSH1 0x0 DUP4 ADD MSTORE PUSH2 0x4E9 DUP2 DUP5 PUSH2 0x496 JUMP JUMPDEST SWAP1 POP SWAP3 SWAP2 POP POP JUMP JUMPDEST PUSH1 0x0 DUP1 PUSH1 0x40 DUP4 DUP6 SUB SLT ISZERO PUSH2 0x508 JUMPI PUSH2 0x507 PUSH2 0x3D8 JUMP JUMPDEST JUMPDEST PUSH1 0x0 PUSH2 0x516 DUP6 DUP3 DUP7 ADD PUSH2 0x3F4 JUMP JUMPDEST SWAP3 POP POP PUSH1 0x20 PUSH2 0x527 DUP6 DUP3 DUP7 ADD PUSH2 0x3F4 JUMP JUMPDEST SWAP2 POP POP SWAP3 POP SWAP3 SWAP1 POP JUMP JUMPDEST PUSH32 0x4E487B7100000000000000000000000000000000000000000000000000000000 PUSH1 0x0 MSTORE PUSH1 0x11 PUSH1 0x4 MSTORE PUSH1 0x24 PUSH1 0x0 REVERT JUMPDEST PUSH1 0x0 PUSH2 0x56B DUP3 PUSH2 0x3A4 JUMP JUMPDEST SWAP2 POP PUSH2 0x576 DUP4 PUSH2 0x3A4 JUMP JUMPDEST SWAP3 POP DUP3 DUP3 LT ISZERO PUSH2 0x589 JUMPI PUSH2 0x588 PUSH2 0x531 JUMP JUMPDEST JUMPDEST DUP3 DUP3 SUB SWAP1 POP SWAP3 SWAP2 POP POP JUMP JUMPDEST PUSH32 0x4E487B7100000000000000000000000000000000000000000000000000000000 PUSH1 0x0 MSTORE PUSH1 0x12 PUSH1 0x4 MSTORE PUSH1 0x24 PUSH1 0x0 REVERT JUMPDEST PUSH1 0x0 PUSH2 0x5CE DUP3 PUSH2 0x3A4 JUMP JUMPDEST SWAP2 POP PUSH2 0x5D9 DUP4 PUSH2 0x3A4 JUMP JUMPDEST SWAP3 POP DUP3 PUSH2 0x5E9 JUMPI PUSH2 0x5E8 PUSH2 0x594 JUMP JUMPDEST JUMPDEST DUP3 DUP3 DIV SWAP1 POP SWAP3 SWAP2 POP POP JUMP JUMPDEST PUSH1 0x0 PUSH2 0x5FF DUP3 PUSH2 0x3A4 JUMP JUMPDEST SWAP2 POP PUSH2 0x60A DUP4 PUSH2 0x3A4 JUMP JUMPDEST SWAP3 POP DUP3 PUSH2 0x61A JUMPI PUSH2 0x619 PUSH2 0x594 JUMP JUMPDEST JUMPDEST DUP3 DUP3 MOD SWAP1 POP SWAP3 SWAP2 POP POP JUMP JUMPDEST PUSH1 0x0 PUSH2 0x630 DUP3 PUSH2 0x3A4 JUMP JUMPDEST SWAP2 POP PUSH2 0x63B DUP4 PUSH2 0x3A4 JUMP JUMPDEST SWAP3 POP DUP3 PUSH32 0xFFFFFFFFFFFFFFFFFFFFFFFFFFFFFFFFFFFFFFFFFFFFFFFFFFFFFFFFFFFFFFFF SUB DUP3 GT ISZERO PUSH2 0x670 JUMPI PUSH2 0x66F PUSH2 0x531 JUMP JUMPDEST JUMPDEST DUP3 DUP3 ADD SWAP1 POP SWAP3 SWAP2 POP POP JUMP JUMPDEST PUSH1 0x0 PUSH2 0x686 DUP3 PUSH2 0x3A4 JUMP JUMPDEST SWAP2 POP PUSH2 0x691 DUP4 PUSH2 0x3A4 JUMP JUMPDEST SWAP3 POP DUP2 PUSH32 0xFFFFFFFFFFFFFFFFFFFFFFFFFFFFFFFFFFFFFFFFFFFFFFFFFFFFFFFFFFFFFFFF DIV DUP4 GT DUP3 ISZERO ISZERO AND ISZERO PUSH2 0x6CA JUMPI PUSH2 0x6C9 PUSH2 0x531 JUMP JUMPDEST JUMPDEST DUP3 DUP3 MUL SWAP1 POP SWAP3 SWAP2 POP POP JUMP JUMPDEST PUSH32 0x4E487B7100000000000000000000000000000000000000000000000000000000 PUSH1 0x0 MSTORE PUSH1 0x22 PUSH1 0x4 MSTORE PUSH1 0x24 PUSH1 0x0 REVERT JUMPDEST PUSH1 0x0 PUSH1 0x2 DUP3 DIV SWAP1 POP PUSH1 0x1 DUP3 AND DUP1 PUSH2 0x71C JUMPI PUSH1 0x7F DUP3 AND SWAP2 POP JUMPDEST PUSH1 0x20 DUP3 LT DUP2 EQ ISZERO PUSH2 0x730 JUMPI PUSH2 0x72F PUSH2 0x6D5 JUMP JUMPDEST JUMPDEST POP SWAP2 SWAP1 POP JUMP INVALID LOG2 PUSH5 0x6970667358 0x22 SLT KECCAK256 STOP MSTORE CODECOPY 0xB4 0xC1 CALLDATASIZE KECCAK256 POP 0xBC 0xED GASLIMIT SWAP4 0xDC DUP10 0x49 SELFBALANCE ISZERO 0xB5 PUSH7 0x97FEE1B23922FF PUSH24 0x7F4AC02EAC64736F6C634300080A00330000000000000000 "
		},
		"gasEstimates": {
			"creation": {
				"codeDepositCost": "380000",
				"executionCost": "infinite",
				"totalCost": "infinite"
			},
			"external": {
				"buyItem(uint256)": "infinite",
				"buyMultipleItems(uint256,uint256)": "infinite",
				"employeeShare()": "2451",
				"getOwnerPayment()": "infinite",
				"ownerEarnings()": "2473",
				"returnItem(uint256)": "infinite",
				"splitProfits()": "infinite",
				"storeName()": "infinite",
				"totalProfit()": "2429",
				"viewOwnersPayment()": "2547",
				"viewProfits()": "2504"
			}
		},
		"methodIdentifiers": {
			"buyItem(uint256)": "e7fb74c7",
			"buyMultipleItems(uint256,uint256)": "d2b5189a",
			"employeeShare()": "8b290a72",
			"getOwnerPayment()": "2264c2ac",
			"ownerEarnings()": "a0a0015c",
			"returnItem(uint256)": "223ed1dd",
			"splitProfits()": "0d294629",
			"storeName()": "521936e6",
			"totalProfit()": "86001519",
			"viewOwnersPayment()": "edf8f408",
			"viewProfits()": "438e65cf"
		}
	},
	"abi": [
		{
			"inputs": [
				{
					"internalType": "uint256",
					"name": "price",
					"type": "uint256"
				}
			],
			"name": "buyItem",
			"outputs": [],
			"stateMutability": "nonpayable",
			"type": "function"
		},
		{
			"inputs": [
				{
					"internalType": "uint256",
					"name": "amount",
					"type": "uint256"
				},
				{
					"internalType": "uint256",
					"name": "price",
					"type": "uint256"
				}
			],
			"name": "buyMultipleItems",
			"outputs": [],
			"stateMutability": "nonpayable",
			"type": "function"
		},
		{
			"inputs": [],
			"name": "employeeShare",
			"outputs": [
				{
					"internalType": "uint256",
					"name": "",
					"type": "uint256"
				}
			],
			"stateMutability": "view",
			"type": "function"
		},
		{
			"inputs": [],
			"name": "getOwnerPayment",
			"outputs": [
				{
					"internalType": "uint256",
					"name": "",
					"type": "uint256"
				}
			],
			"stateMutability": "nonpayable",
			"type": "function"
		},
		{
			"inputs": [],
			"name": "ownerEarnings",
			"outputs": [
				{
					"internalType": "uint256",
					"name": "",
					"type": "uint256"
				}
			],
			"stateMutability": "view",
			"type": "function"
		},
		{
			"inputs": [
				{
					"internalType": "uint256",
					"name": "price",
					"type": "uint256"
				}
			],
			"name": "returnItem",
			"outputs": [],
			"stateMutability": "nonpayable",
			"type": "function"
		},
		{
			"inputs": [],
			"name": "splitProfits",
			"outputs": [
				{
					"internalType": "uint256",
					"name": "",
					"type": "uint256"
				}
			],
			"stateMutability": "nonpayable",
			"type": "function"
		},
		{
			"inputs": [],
			"name": "storeName",
			"outputs": [
				{
					"internalType": "string",
					"name": "",
					"type": "string"
				}
			],
			"stateMutability": "view",
			"type": "function"
		},
		{
			"inputs": [],
			"name": "totalProfit",
			"outputs": [
				{
					"internalType": "uint256",
					"name": "",
					"type": "uint256"
				}
			],
			"stateMutability": "view",
			"type": "function"
		},
		{
			"inputs": [],
			"name": "viewOwnersPayment",
			"outputs": [
				{
					"internalType": "uint256",
					"name": "",
					"type": "uint256"
				}
			],
			"stateMutability": "view",
			"type": "function"
		},
		{
			"inputs": [],
			"name": "viewProfits",
			"outputs": [
				{
					"internalType": "uint256",
					"name": "",
					"type": "uint256"
				}
			],
			"stateMutability": "view",
			"type": "function"
		}
	]
}